{
  "contractName": "Mortal",
  "abi": [
    {
      "inputs": [],
      "payable": false,
      "stateMutability": "nonpayable",
      "type": "constructor"
    },
    {
      "constant": false,
      "inputs": [],
      "name": "kill",
      "outputs": [],
      "payable": false,
      "stateMutability": "nonpayable",
      "type": "function"
    }
  ],
  "bytecode": "0x608060405234801561001057600080fd5b50336000806101000a81548173ffffffffffffffffffffffffffffffffffffffff021916908373ffffffffffffffffffffffffffffffffffffffff160217905550610114806100606000396000f300608060405260043610603f576000357c0100000000000000000000000000000000000000000000000000000000900463ffffffff16806341c0e1b5146044575b600080fd5b348015604f57600080fd5b5060566058565b005b6000809054906101000a900473ffffffffffffffffffffffffffffffffffffffff1673ffffffffffffffffffffffffffffffffffffffff163373ffffffffffffffffffffffffffffffffffffffff16141560e6576000809054906101000a900473ffffffffffffffffffffffffffffffffffffffff1673ffffffffffffffffffffffffffffffffffffffff16ff5b5600a165627a7a723058206d3b12d8a3239143947fded184f8cba236aac1ccc15d835c320e7b1f603701260029",
  "source": "pragma solidity ^0.4.21;\n/* Un langage objet */\ncontract Mortal {\n    address owner;\n\n    constructor() public { owner = msg.sender; }\n    function kill() public { if (msg.sender == owner) selfdestruct(owner); }\n}\n\n/* De l'héritage */\ncontract AramisGreeter is Mortal {\n    string private greeting;\n\n    constructor() public {\n        greeting = \"10ème journée - Aramis 2018\" ;\n    }\n\n    function greet() public constant returns (string) {\n        return greeting;\n    }\n}\n\n",
  "sourcePath": "/home/remche/taf/aramis/aramis-ethereum-contract/contracts/AramisGreeter.sol",
  "compiler": {
    "name": "solc",
    "version": "0.4.23+commit.124ca40d.Emscripten.clang"
  },
  "schemaVersion": "2.0.0",
  "updatedAt": "2018-05-13T14:22:37.538Z"
}